{
  "_format": "hh-sol-artifact-1",
  "contractName": "RealEstate",
  "sourceName": "contracts/RealEstate.sol",
  "abi": [
    {
      "inputs": [],
      "stateMutability": "nonpayable",
      "type": "constructor"
    },
    {
      "anonymous": false,
      "inputs": [
        {
          "indexed": true,
          "internalType": "address",
          "name": "owner",
          "type": "address"
        },
        {
          "indexed": true,
          "internalType": "address",
          "name": "approved",
          "type": "address"
        },
        {
          "indexed": true,
          "internalType": "uint256",
          "name": "tokenId",
          "type": "uint256"
        }
      ],
      "name": "Approval",
      "type": "event"
    },
    {
      "anonymous": false,
      "inputs": [
        {
          "indexed": true,
          "internalType": "address",
          "name": "owner",
          "type": "address"
        },
        {
          "indexed": true,
          "internalType": "address",
          "name": "operator",
          "type": "address"
        },
        {
          "indexed": false,
          "internalType": "bool",
          "name": "approved",
          "type": "bool"
        }
      ],
      "name": "ApprovalForAll",
      "type": "event"
    },
    {
      "anonymous": false,
      "inputs": [
        {
          "indexed": false,
          "internalType": "uint256",
          "name": "_fromTokenId",
          "type": "uint256"
        },
        {
          "indexed": false,
          "internalType": "uint256",
          "name": "_toTokenId",
          "type": "uint256"
        }
      ],
      "name": "BatchMetadataUpdate",
      "type": "event"
    },
    {
      "anonymous": false,
      "inputs": [
        {
          "indexed": false,
          "internalType": "uint256",
          "name": "_tokenId",
          "type": "uint256"
        }
      ],
      "name": "MetadataUpdate",
      "type": "event"
    },
    {
      "anonymous": false,
      "inputs": [
        {
          "indexed": true,
          "internalType": "address",
          "name": "from",
          "type": "address"
        },
        {
          "indexed": true,
          "internalType": "address",
          "name": "to",
          "type": "address"
        },
        {
          "indexed": true,
          "internalType": "uint256",
          "name": "tokenId",
          "type": "uint256"
        }
      ],
      "name": "Transfer",
      "type": "event"
    },
    {
      "inputs": [
        {
          "internalType": "address",
          "name": "to",
          "type": "address"
        },
        {
          "internalType": "uint256",
          "name": "tokenId",
          "type": "uint256"
        }
      ],
      "name": "approve",
      "outputs": [],
      "stateMutability": "nonpayable",
      "type": "function"
    },
    {
      "inputs": [
        {
          "internalType": "address",
          "name": "owner",
          "type": "address"
        }
      ],
      "name": "balanceOf",
      "outputs": [
        {
          "internalType": "uint256",
          "name": "",
          "type": "uint256"
        }
      ],
      "stateMutability": "view",
      "type": "function"
    },
    {
      "inputs": [
        {
          "internalType": "uint256",
          "name": "tokenId",
          "type": "uint256"
        }
      ],
      "name": "getApproved",
      "outputs": [
        {
          "internalType": "address",
          "name": "",
          "type": "address"
        }
      ],
      "stateMutability": "view",
      "type": "function"
    },
    {
      "inputs": [
        {
          "internalType": "address",
          "name": "owner",
          "type": "address"
        },
        {
          "internalType": "address",
          "name": "operator",
          "type": "address"
        }
      ],
      "name": "isApprovedForAll",
      "outputs": [
        {
          "internalType": "bool",
          "name": "",
          "type": "bool"
        }
      ],
      "stateMutability": "view",
      "type": "function"
    },
    {
      "inputs": [
        {
          "internalType": "string",
          "name": "tokenURI",
          "type": "string"
        }
      ],
      "name": "mint",
      "outputs": [
        {
          "internalType": "uint256",
          "name": "",
          "type": "uint256"
        }
      ],
      "stateMutability": "nonpayable",
      "type": "function"
    },
    {
      "inputs": [],
      "name": "name",
      "outputs": [
        {
          "internalType": "string",
          "name": "",
          "type": "string"
        }
      ],
      "stateMutability": "view",
      "type": "function"
    },
    {
      "inputs": [
        {
          "internalType": "uint256",
          "name": "tokenId",
          "type": "uint256"
        }
      ],
      "name": "ownerOf",
      "outputs": [
        {
          "internalType": "address",
          "name": "",
          "type": "address"
        }
      ],
      "stateMutability": "view",
      "type": "function"
    },
    {
      "inputs": [
        {
          "internalType": "address",
          "name": "from",
          "type": "address"
        },
        {
          "internalType": "address",
          "name": "to",
          "type": "address"
        },
        {
          "internalType": "uint256",
          "name": "tokenId",
          "type": "uint256"
        }
      ],
      "name": "safeTransferFrom",
      "outputs": [],
      "stateMutability": "nonpayable",
      "type": "function"
    },
    {
      "inputs": [
        {
          "internalType": "address",
          "name": "from",
          "type": "address"
        },
        {
          "internalType": "address",
          "name": "to",
          "type": "address"
        },
        {
          "internalType": "uint256",
          "name": "tokenId",
          "type": "uint256"
        },
        {
          "internalType": "bytes",
          "name": "data",
          "type": "bytes"
        }
      ],
      "name": "safeTransferFrom",
      "outputs": [],
      "stateMutability": "nonpayable",
      "type": "function"
    },
    {
      "inputs": [
        {
          "internalType": "address",
          "name": "operator",
          "type": "address"
        },
        {
          "internalType": "bool",
          "name": "approved",
          "type": "bool"
        }
      ],
      "name": "setApprovalForAll",
      "outputs": [],
      "stateMutability": "nonpayable",
      "type": "function"
    },
    {
      "inputs": [
        {
          "internalType": "bytes4",
          "name": "interfaceId",
          "type": "bytes4"
        }
      ],
      "name": "supportsInterface",
      "outputs": [
        {
          "internalType": "bool",
          "name": "",
          "type": "bool"
        }
      ],
      "stateMutability": "view",
      "type": "function"
    },
    {
      "inputs": [],
      "name": "symbol",
      "outputs": [
        {
          "internalType": "string",
          "name": "",
          "type": "string"
        }
      ],
      "stateMutability": "view",
      "type": "function"
    },
    {
      "inputs": [
        {
          "internalType": "uint256",
          "name": "tokenId",
          "type": "uint256"
        }
      ],
      "name": "tokenURI",
      "outputs": [
        {
          "internalType": "string",
          "name": "",
          "type": "string"
        }
      ],
      "stateMutability": "view",
      "type": "function"
    },
    {
      "inputs": [],
      "name": "totalSupply",
      "outputs": [
        {
          "internalType": "uint256",
          "name": "",
          "type": "uint256"
        }
      ],
      "stateMutability": "view",
      "type": "function"
    },
    {
      "inputs": [
        {
          "internalType": "address",
          "name": "from",
          "type": "address"
        },
        {
          "internalType": "address",
          "name": "to",
          "type": "address"
        },
        {
          "internalType": "uint256",
          "name": "tokenId",
          "type": "uint256"
        }
      ],
      "name": "transferFrom",
      "outputs": [],
      "stateMutability": "nonpayable",
      "type": "function"
    }
  ],
  "bytecode": "0x60806040523480156200001157600080fd5b506040518060400160405280600b81526020017f5265616c204573746174650000000000000000000000000000000000000000008152506040518060400160405280600481526020017f5245414c0000000000000000000000000000000000000000000000000000000081525081600090816200008f919062000324565b508060019081620000a1919062000324565b5050506200040b565b600081519050919050565b7f4e487b7100000000000000000000000000000000000000000000000000000000600052604160045260246000fd5b7f4e487b7100000000000000000000000000000000000000000000000000000000600052602260045260246000fd5b600060028204905060018216806200012c57607f821691505b602082108103620001425762000141620000e4565b5b50919050565b60008190508160005260206000209050919050565b60006020601f8301049050919050565b600082821b905092915050565b600060088302620001ac7fffffffffffffffffffffffffffffffffffffffffffffffffffffffffffffffff826200016d565b620001b886836200016d565b95508019841693508086168417925050509392505050565b6000819050919050565b6000819050919050565b600062000205620001ff620001f984620001d0565b620001da565b620001d0565b9050919050565b6000819050919050565b6200022183620001e4565b6200023962000230826200020c565b8484546200017a565b825550505050565b600090565b6200025062000241565b6200025d81848462000216565b505050565b5b8181101562000285576200027960008262000246565b60018101905062000263565b5050565b601f821115620002d4576200029e8162000148565b620002a9846200015d565b81016020851015620002b9578190505b620002d1620002c8856200015d565b83018262000262565b50505b505050565b600082821c905092915050565b6000620002f960001984600802620002d9565b1980831691505092915050565b6000620003148383620002e6565b9150826002028217905092915050565b6200032f82620000aa565b67ffffffffffffffff8111156200034b576200034a620000b5565b5b62000357825462000113565b6200036482828562000289565b600060209050601f8311600181146200039c576000841562000387578287015190505b62000393858262000306565b86555062000403565b601f198416620003ac8662000148565b60005b82811015620003d657848901518255600182019150602085019450602081019050620003af565b86831015620003f65784890151620003f2601f891682620002e6565b8355505b6001600288020188555050505b505050505050565b612b2a806200041b6000396000f3fe608060405234801561001057600080fd5b50600436106100f55760003560e01c80636352211e11610097578063b88d4fde11610066578063b88d4fde14610284578063c87b56dd146102a0578063d85d3d27146102d0578063e985e9c514610300576100f5565b80636352211e146101ea57806370a082311461021a57806395d89b411461024a578063a22cb46514610268576100f5565b8063095ea7b3116100d3578063095ea7b31461017857806318160ddd1461019457806323b872dd146101b257806342842e0e146101ce576100f5565b806301ffc9a7146100fa57806306fdde031461012a578063081812fc14610148575b600080fd5b610114600480360381019061010f9190611a2c565b610330565b6040516101219190611a74565b60405180910390f35b610132610342565b60405161013f9190611b1f565b60405180910390f35b610162600480360381019061015d9190611b77565b6103d4565b60405161016f9190611be5565b60405180910390f35b610192600480360381019061018d9190611c2c565b61041a565b005b61019c610531565b6040516101a99190611c7b565b60405180910390f35b6101cc60048036038101906101c79190611c96565b610542565b005b6101e860048036038101906101e39190611c96565b6105a2565b005b61020460048036038101906101ff9190611b77565b6105c2565b6040516102119190611be5565b60405180910390f35b610234600480360381019061022f9190611ce9565b610648565b6040516102419190611c7b565b60405180910390f35b6102526106ff565b60405161025f9190611b1f565b60405180910390f35b610282600480360381019061027d9190611d42565b610791565b005b61029e60048036038101906102999190611eb7565b6107a7565b005b6102ba60048036038101906102b59190611b77565b610809565b6040516102c79190611b1f565b60405180910390f35b6102ea60048036038101906102e59190611fdb565b61081b565b6040516102f79190611c7b565b60405180910390f35b61031a60048036038101906103159190612024565b610852565b6040516103279190611a74565b60405180910390f35b600061033b826108e6565b9050919050565b60606000805461035190612093565b80601f016020809104026020016040519081016040528092919081815260200182805461037d90612093565b80156103ca5780601f1061039f576101008083540402835291602001916103ca565b820191906000526020600020905b8154815290600101906020018083116103ad57829003601f168201915b5050505050905090565b60006103df82610947565b6004600083815260200190815260200160002060009054906101000a900473ffffffffffffffffffffffffffffffffffffffff169050919050565b6000610425826105c2565b90508073ffffffffffffffffffffffffffffffffffffffff168373ffffffffffffffffffffffffffffffffffffffff1603610495576040517f08c379a000000000000000000000000000000000000000000000000000000000815260040161048c90612136565b60405180910390fd5b8073ffffffffffffffffffffffffffffffffffffffff166104b4610992565b73ffffffffffffffffffffffffffffffffffffffff1614806104e357506104e2816104dd610992565b610852565b5b610522576040517f08c379a0000000000000000000000000000000000000000000000000000000008152600401610519906121c8565b60405180910390fd5b61052c838361099a565b505050565b600061053d6007610a53565b905090565b61055361054d610992565b82610a61565b610592576040517f08c379a00000000000000000000000000000000000000000000000000000000081526004016105899061225a565b60405180910390fd5b61059d838383610af6565b505050565b6105bd838383604051806020016040528060008152506107a7565b505050565b6000806105ce83610def565b9050600073ffffffffffffffffffffffffffffffffffffffff168173ffffffffffffffffffffffffffffffffffffffff160361063f576040517f08c379a0000000000000000000000000000000000000000000000000000000008152600401610636906122c6565b60405180910390fd5b80915050919050565b60008073ffffffffffffffffffffffffffffffffffffffff168273ffffffffffffffffffffffffffffffffffffffff16036106b8576040517f08c379a00000000000000000000000000000000000000000000000000000000081526004016106af90612358565b60405180910390fd5b600360008373ffffffffffffffffffffffffffffffffffffffff1673ffffffffffffffffffffffffffffffffffffffff168152602001908152602001600020549050919050565b60606001805461070e90612093565b80601f016020809104026020016040519081016040528092919081815260200182805461073a90612093565b80156107875780601f1061075c57610100808354040283529160200191610787565b820191906000526020600020905b81548152906001019060200180831161076a57829003601f168201915b5050505050905090565b6107a361079c610992565b8383610e2c565b5050565b6107b86107b2610992565b83610a61565b6107f7576040517f08c379a00000000000000000000000000000000000000000000000000000000081526004016107ee9061225a565b60405180910390fd5b61080384848484610f98565b50505050565b606061081482610ff4565b9050919050565b60006108276007611106565b60006108336007610a53565b905061083f338261111c565b6108498184611339565b80915050919050565b6000600560008473ffffffffffffffffffffffffffffffffffffffff1673ffffffffffffffffffffffffffffffffffffffff16815260200190815260200160002060008373ffffffffffffffffffffffffffffffffffffffff1673ffffffffffffffffffffffffffffffffffffffff16815260200190815260200160002060009054906101000a900460ff16905092915050565b6000634906490660e01b7bffffffffffffffffffffffffffffffffffffffffffffffffffffffff1916827bffffffffffffffffffffffffffffffffffffffffffffffffffffffff19161480610940575061093f826113dd565b5b9050919050565b610950816114bf565b61098f576040517f08c379a0000000000000000000000000000000000000000000000000000000008152600401610986906122c6565b60405180910390fd5b50565b600033905090565b816004600083815260200190815260200160002060006101000a81548173ffffffffffffffffffffffffffffffffffffffff021916908373ffffffffffffffffffffffffffffffffffffffff160217905550808273ffffffffffffffffffffffffffffffffffffffff16610a0d836105c2565b73ffffffffffffffffffffffffffffffffffffffff167f8c5be1e5ebec7d5bd14f71427d1e84f3dd0314c0f7b2291e5b200ac8c7c3b92560405160405180910390a45050565b600081600001549050919050565b600080610a6d836105c2565b90508073ffffffffffffffffffffffffffffffffffffffff168473ffffffffffffffffffffffffffffffffffffffff161480610aaf5750610aae8185610852565b5b80610aed57508373ffffffffffffffffffffffffffffffffffffffff16610ad5846103d4565b73ffffffffffffffffffffffffffffffffffffffff16145b91505092915050565b8273ffffffffffffffffffffffffffffffffffffffff16610b16826105c2565b73ffffffffffffffffffffffffffffffffffffffff1614610b6c576040517f08c379a0000000000000000000000000000000000000000000000000000000008152600401610b63906123ea565b60405180910390fd5b600073ffffffffffffffffffffffffffffffffffffffff168273ffffffffffffffffffffffffffffffffffffffff1603610bdb576040517f08c379a0000000000000000000000000000000000000000000000000000000008152600401610bd29061247c565b60405180910390fd5b610be88383836001611500565b8273ffffffffffffffffffffffffffffffffffffffff16610c08826105c2565b73ffffffffffffffffffffffffffffffffffffffff1614610c5e576040517f08c379a0000000000000000000000000000000000000000000000000000000008152600401610c55906123ea565b60405180910390fd5b6004600082815260200190815260200160002060006101000a81549073ffffffffffffffffffffffffffffffffffffffff02191690556001600360008573ffffffffffffffffffffffffffffffffffffffff1673ffffffffffffffffffffffffffffffffffffffff168152602001908152602001600020600082825403925050819055506001600360008473ffffffffffffffffffffffffffffffffffffffff1673ffffffffffffffffffffffffffffffffffffffff16815260200190815260200160002060008282540192505081905550816002600083815260200190815260200160002060006101000a81548173ffffffffffffffffffffffffffffffffffffffff021916908373ffffffffffffffffffffffffffffffffffffffff160217905550808273ffffffffffffffffffffffffffffffffffffffff168473ffffffffffffffffffffffffffffffffffffffff167fddf252ad1be2c89b69c2b068fc378daa952ba7f163c4a11628f55a4df523b3ef60405160405180910390a4610dea8383836001611506565b505050565b60006002600083815260200190815260200160002060009054906101000a900473ffffffffffffffffffffffffffffffffffffffff169050919050565b8173ffffffffffffffffffffffffffffffffffffffff168373ffffffffffffffffffffffffffffffffffffffff1603610e9a576040517f08c379a0000000000000000000000000000000000000000000000000000000008152600401610e91906124e8565b60405180910390fd5b80600560008573ffffffffffffffffffffffffffffffffffffffff1673ffffffffffffffffffffffffffffffffffffffff16815260200190815260200160002060008473ffffffffffffffffffffffffffffffffffffffff1673ffffffffffffffffffffffffffffffffffffffff16815260200190815260200160002060006101000a81548160ff0219169083151502179055508173ffffffffffffffffffffffffffffffffffffffff168373ffffffffffffffffffffffffffffffffffffffff167f17307eab39ab6107e8899845ad3d59bd9653f200f220920489ca2b5937696c3183604051610f8b9190611a74565b60405180910390a3505050565b610fa3848484610af6565b610faf8484848461150c565b610fee576040517f08c379a0000000000000000000000000000000000000000000000000000000008152600401610fe59061257a565b60405180910390fd5b50505050565b6060610fff82610947565b600060066000848152602001908152602001600020805461101f90612093565b80601f016020809104026020016040519081016040528092919081815260200182805461104b90612093565b80156110985780601f1061106d57610100808354040283529160200191611098565b820191906000526020600020905b81548152906001019060200180831161107b57829003601f168201915b5050505050905060006110a9611693565b905060008151036110be578192505050611101565b6000825111156110f35780826040516020016110db9291906125d6565b60405160208183030381529060405292505050611101565b6110fc846116aa565b925050505b919050565b6001816000016000828254019250508190555050565b600073ffffffffffffffffffffffffffffffffffffffff168273ffffffffffffffffffffffffffffffffffffffff160361118b576040517f08c379a000000000000000000000000000000000000000000000000000000000815260040161118290612646565b60405180910390fd5b611194816114bf565b156111d4576040517f08c379a00000000000000000000000000000000000000000000000000000000081526004016111cb906126b2565b60405180910390fd5b6111e2600083836001611500565b6111eb816114bf565b1561122b576040517f08c379a0000000000000000000000000000000000000000000000000000000008152600401611222906126b2565b60405180910390fd5b6001600360008473ffffffffffffffffffffffffffffffffffffffff1673ffffffffffffffffffffffffffffffffffffffff16815260200190815260200160002060008282540192505081905550816002600083815260200190815260200160002060006101000a81548173ffffffffffffffffffffffffffffffffffffffff021916908373ffffffffffffffffffffffffffffffffffffffff160217905550808273ffffffffffffffffffffffffffffffffffffffff16600073ffffffffffffffffffffffffffffffffffffffff167fddf252ad1be2c89b69c2b068fc378daa952ba7f163c4a11628f55a4df523b3ef60405160405180910390a4611335600083836001611506565b5050565b611342826114bf565b611381576040517f08c379a000000000000000000000000000000000000000000000000000000000815260040161137890612744565b60405180910390fd5b806006600084815260200190815260200160002090816113a19190612910565b507ff8e1a15aba9398e019f0b49df1a4fde98ee17ae345cb5f6b5e2c27f5033e8ce7826040516113d19190611c7b565b60405180910390a15050565b60007f80ac58cd000000000000000000000000000000000000000000000000000000007bffffffffffffffffffffffffffffffffffffffffffffffffffffffff1916827bffffffffffffffffffffffffffffffffffffffffffffffffffffffff191614806114a857507f5b5e139f000000000000000000000000000000000000000000000000000000007bffffffffffffffffffffffffffffffffffffffffffffffffffffffff1916827bffffffffffffffffffffffffffffffffffffffffffffffffffffffff1916145b806114b857506114b782611712565b5b9050919050565b60008073ffffffffffffffffffffffffffffffffffffffff166114e183610def565b73ffffffffffffffffffffffffffffffffffffffff1614159050919050565b50505050565b50505050565b600061152d8473ffffffffffffffffffffffffffffffffffffffff1661177c565b15611686578373ffffffffffffffffffffffffffffffffffffffff1663150b7a02611556610992565b8786866040518563ffffffff1660e01b81526004016115789493929190612a37565b6020604051808303816000875af19250505080156115b457506040513d601f19601f820116820180604052508101906115b19190612a98565b60015b611636573d80600081146115e4576040519150601f19603f3d011682016040523d82523d6000602084013e6115e9565b606091505b50600081510361162e576040517f08c379a00000000000000000000000000000000000000000000000000000000081526004016116259061257a565b60405180910390fd5b805181602001fd5b63150b7a0260e01b7bffffffffffffffffffffffffffffffffffffffffffffffffffffffff1916817bffffffffffffffffffffffffffffffffffffffffffffffffffffffff19161491505061168b565b600190505b949350505050565b606060405180602001604052806000815250905090565b60606116b582610947565b60006116bf611693565b905060008151116116df576040518060200160405280600081525061170a565b806116e98461179f565b6040516020016116fa9291906125d6565b6040516020818303038152906040525b915050919050565b60007f01ffc9a7000000000000000000000000000000000000000000000000000000007bffffffffffffffffffffffffffffffffffffffffffffffffffffffff1916827bffffffffffffffffffffffffffffffffffffffffffffffffffffffff1916149050919050565b6000808273ffffffffffffffffffffffffffffffffffffffff163b119050919050565b6060600060016117ae8461186d565b01905060008167ffffffffffffffff8111156117cd576117cc611d8c565b5b6040519080825280601f01601f1916602001820160405280156117ff5781602001600182028036833780820191505090505b509050600082602001820190505b600115611862578080600190039150507f3031323334353637383961626364656600000000000000000000000000000000600a86061a8153600a858161185657611855612ac5565b5b0494506000850361180d575b819350505050919050565b600080600090507a184f03e93ff9f4daa797ed6e38ed64bf6a1f01000000000000000083106118cb577a184f03e93ff9f4daa797ed6e38ed64bf6a1f01000000000000000083816118c1576118c0612ac5565b5b0492506040810190505b6d04ee2d6d415b85acef81000000008310611908576d04ee2d6d415b85acef810000000083816118fe576118fd612ac5565b5b0492506020810190505b662386f26fc10000831061193757662386f26fc10000838161192d5761192c612ac5565b5b0492506010810190505b6305f5e1008310611960576305f5e100838161195657611955612ac5565b5b0492506008810190505b612710831061198557612710838161197b5761197a612ac5565b5b0492506004810190505b606483106119a8576064838161199e5761199d612ac5565b5b0492506002810190505b600a83106119b7576001810190505b80915050919050565b6000604051905090565b600080fd5b600080fd5b60007fffffffff0000000000000000000000000000000000000000000000000000000082169050919050565b611a09816119d4565b8114611a1457600080fd5b50565b600081359050611a2681611a00565b92915050565b600060208284031215611a4257611a416119ca565b5b6000611a5084828501611a17565b91505092915050565b60008115159050919050565b611a6e81611a59565b82525050565b6000602082019050611a896000830184611a65565b92915050565b600081519050919050565b600082825260208201905092915050565b60005b83811015611ac9578082015181840152602081019050611aae565b60008484015250505050565b6000601f19601f8301169050919050565b6000611af182611a8f565b611afb8185611a9a565b9350611b0b818560208601611aab565b611b1481611ad5565b840191505092915050565b60006020820190508181036000830152611b398184611ae6565b905092915050565b6000819050919050565b611b5481611b41565b8114611b5f57600080fd5b50565b600081359050611b7181611b4b565b92915050565b600060208284031215611b8d57611b8c6119ca565b5b6000611b9b84828501611b62565b91505092915050565b600073ffffffffffffffffffffffffffffffffffffffff82169050919050565b6000611bcf82611ba4565b9050919050565b611bdf81611bc4565b82525050565b6000602082019050611bfa6000830184611bd6565b92915050565b611c0981611bc4565b8114611c1457600080fd5b50565b600081359050611c2681611c00565b92915050565b60008060408385031215611c4357611c426119ca565b5b6000611c5185828601611c17565b9250506020611c6285828601611b62565b9150509250929050565b611c7581611b41565b82525050565b6000602082019050611c906000830184611c6c565b92915050565b600080600060608486031215611caf57611cae6119ca565b5b6000611cbd86828701611c17565b9350506020611cce86828701611c17565b9250506040611cdf86828701611b62565b9150509250925092565b600060208284031215611cff57611cfe6119ca565b5b6000611d0d84828501611c17565b91505092915050565b611d1f81611a59565b8114611d2a57600080fd5b50565b600081359050611d3c81611d16565b92915050565b60008060408385031215611d5957611d586119ca565b5b6000611d6785828601611c17565b9250506020611d7885828601611d2d565b9150509250929050565b600080fd5b600080fd5b7f4e487b7100000000000000000000000000000000000000000000000000000000600052604160045260246000fd5b611dc482611ad5565b810181811067ffffffffffffffff82111715611de357611de2611d8c565b5b80604052505050565b6000611df66119c0565b9050611e028282611dbb565b919050565b600067ffffffffffffffff821115611e2257611e21611d8c565b5b611e2b82611ad5565b9050602081019050919050565b82818337600083830152505050565b6000611e5a611e5584611e07565b611dec565b905082815260208101848484011115611e7657611e75611d87565b5b611e81848285611e38565b509392505050565b600082601f830112611e9e57611e9d611d82565b5b8135611eae848260208601611e47565b91505092915050565b60008060008060808587031215611ed157611ed06119ca565b5b6000611edf87828801611c17565b9450506020611ef087828801611c17565b9350506040611f0187828801611b62565b925050606085013567ffffffffffffffff811115611f2257611f216119cf565b5b611f2e87828801611e89565b91505092959194509250565b600067ffffffffffffffff821115611f5557611f54611d8c565b5b611f5e82611ad5565b9050602081019050919050565b6000611f7e611f7984611f3a565b611dec565b905082815260208101848484011115611f9a57611f99611d87565b5b611fa5848285611e38565b509392505050565b600082601f830112611fc257611fc1611d82565b5b8135611fd2848260208601611f6b565b91505092915050565b600060208284031215611ff157611ff06119ca565b5b600082013567ffffffffffffffff81111561200f5761200e6119cf565b5b61201b84828501611fad565b91505092915050565b6000806040838503121561203b5761203a6119ca565b5b600061204985828601611c17565b925050602061205a85828601611c17565b9150509250929050565b7f4e487b7100000000000000000000000000000000000000000000000000000000600052602260045260246000fd5b600060028204905060018216806120ab57607f821691505b6020821081036120be576120bd612064565b5b50919050565b7f4552433732313a20617070726f76616c20746f2063757272656e74206f776e6560008201527f7200000000000000000000000000000000000000000000000000000000000000602082015250565b6000612120602183611a9a565b915061212b826120c4565b604082019050919050565b6000602082019050818103600083015261214f81612113565b9050919050565b7f4552433732313a20617070726f76652063616c6c6572206973206e6f7420746f60008201527f6b656e206f776e6572206f7220617070726f76656420666f7220616c6c000000602082015250565b60006121b2603d83611a9a565b91506121bd82612156565b604082019050919050565b600060208201905081810360008301526121e1816121a5565b9050919050565b7f4552433732313a2063616c6c6572206973206e6f7420746f6b656e206f776e6560008201527f72206f7220617070726f76656400000000000000000000000000000000000000602082015250565b6000612244602d83611a9a565b915061224f826121e8565b604082019050919050565b6000602082019050818103600083015261227381612237565b9050919050565b7f4552433732313a20696e76616c696420746f6b656e2049440000000000000000600082015250565b60006122b0601883611a9a565b91506122bb8261227a565b602082019050919050565b600060208201905081810360008301526122df816122a3565b9050919050565b7f4552433732313a2061646472657373207a65726f206973206e6f74206120766160008201527f6c6964206f776e65720000000000000000000000000000000000000000000000602082015250565b6000612342602983611a9a565b915061234d826122e6565b604082019050919050565b6000602082019050818103600083015261237181612335565b9050919050565b7f4552433732313a207472616e736665722066726f6d20696e636f72726563742060008201527f6f776e6572000000000000000000000000000000000000000000000000000000602082015250565b60006123d4602583611a9a565b91506123df82612378565b604082019050919050565b60006020820190508181036000830152612403816123c7565b9050919050565b7f4552433732313a207472616e7366657220746f20746865207a65726f2061646460008201527f7265737300000000000000000000000000000000000000000000000000000000602082015250565b6000612466602483611a9a565b91506124718261240a565b604082019050919050565b6000602082019050818103600083015261249581612459565b9050919050565b7f4552433732313a20617070726f766520746f2063616c6c657200000000000000600082015250565b60006124d2601983611a9a565b91506124dd8261249c565b602082019050919050565b60006020820190508181036000830152612501816124c5565b9050919050565b7f4552433732313a207472616e7366657220746f206e6f6e20455243373231526560008201527f63656976657220696d706c656d656e7465720000000000000000000000000000602082015250565b6000612564603283611a9a565b915061256f82612508565b604082019050919050565b6000602082019050818103600083015261259381612557565b9050919050565b600081905092915050565b60006125b082611a8f565b6125ba818561259a565b93506125ca818560208601611aab565b80840191505092915050565b60006125e282856125a5565b91506125ee82846125a5565b91508190509392505050565b7f4552433732313a206d696e7420746f20746865207a65726f2061646472657373600082015250565b6000612630602083611a9a565b915061263b826125fa565b602082019050919050565b6000602082019050818103600083015261265f81612623565b9050919050565b7f4552433732313a20746f6b656e20616c7265616479206d696e74656400000000600082015250565b600061269c601c83611a9a565b91506126a782612666565b602082019050919050565b600060208201905081810360008301526126cb8161268f565b9050919050565b7f45524337323155524953746f726167653a2055524920736574206f66206e6f6e60008201527f6578697374656e7420746f6b656e000000000000000000000000000000000000602082015250565b600061272e602e83611a9a565b9150612739826126d2565b604082019050919050565b6000602082019050818103600083015261275d81612721565b9050919050565b60008190508160005260206000209050919050565b60006020601f8301049050919050565b600082821b905092915050565b6000600883026127c67fffffffffffffffffffffffffffffffffffffffffffffffffffffffffffffffff82612789565b6127d08683612789565b95508019841693508086168417925050509392505050565b6000819050919050565b600061280d61280861280384611b41565b6127e8565b611b41565b9050919050565b6000819050919050565b612827836127f2565b61283b61283382612814565b848454612796565b825550505050565b600090565b612850612843565b61285b81848461281e565b505050565b5b8181101561287f57612874600082612848565b600181019050612861565b5050565b601f8211156128c45761289581612764565b61289e84612779565b810160208510156128ad578190505b6128c16128b985612779565b830182612860565b50505b505050565b600082821c905092915050565b60006128e7600019846008026128c9565b1980831691505092915050565b600061290083836128d6565b9150826002028217905092915050565b61291982611a8f565b67ffffffffffffffff81111561293257612931611d8c565b5b61293c8254612093565b612947828285612883565b600060209050601f83116001811461297a5760008415612968578287015190505b61297285826128f4565b8655506129da565b601f19841661298886612764565b60005b828110156129b05784890151825560018201915060208501945060208101905061298b565b868310156129cd57848901516129c9601f8916826128d6565b8355505b6001600288020188555050505b505050505050565b600081519050919050565b600082825260208201905092915050565b6000612a09826129e2565b612a1381856129ed565b9350612a23818560208601611aab565b612a2c81611ad5565b840191505092915050565b6000608082019050612a4c6000830187611bd6565b612a596020830186611bd6565b612a666040830185611c6c565b8181036060830152612a7881846129fe565b905095945050505050565b600081519050612a9281611a00565b92915050565b600060208284031215612aae57612aad6119ca565b5b6000612abc84828501612a83565b91505092915050565b7f4e487b7100000000000000000000000000000000000000000000000000000000600052601260045260246000fdfea26469706673582212200a96dafd9c2e7f3146b329b39dfc99ae4e45f87fd1adc04249f99a23405b627f64736f6c63430008110033",
  "linkReferences": {},
  "deployedLinkReferences": {}
}